{
  "abi": [
    {
      "inputs": [
        {
          "internalType": "uint256",
          "name": "value",
          "type": "uint256"
        }
      ],
      "name": "id",
      "outputs": [
        {
          "internalType": "uint256",
          "name": "",
          "type": "uint256"
        }
      ],
      "stateMutability": "pure",
      "type": "function"
    }
  ],
  "bytecode": {
    "object": "0x6080604052348015600f57600080fd5b5060728061001e6000396000f3fe6080604052348015600f57600080fd5b506004361060285760003560e01c80637d3c40c814602d575b600080fd5b603b6038366004604d565b90565b60405190815260200160405180910390f35b600060208284031215605e57600080fd5b503591905056fea164736f6c6343000815000a",
    "linkReferences": {}
  },
  "methodIdentifiers": {
    "id(uint256)": "7d3c40c8"
  },
  "id": 19
}