{
  "abi": [
    {
      "inputs": [],
      "stateMutability": "nonpayable",
      "type": "constructor"
    },
    {
      "inputs": [],
      "name": "AuditorExists",
      "type": "error"
    },
    {
      "inputs": [
        {
          "internalType": "uint256",
          "name": "chainid",
          "type": "uint256"
        }
      ],
      "name": "ChainNotSupported",
      "type": "error"
    },
    {
      "inputs": [
        {
          "internalType": "uint256",
          "name": "value",
          "type": "uint256"
        },
        {
          "internalType": "uint256",
          "name": "length",
          "type": "uint256"
        }
      ],
      "name": "StringsInsufficientHexLength",
      "type": "error"
    },
    {
      "inputs": [],
      "name": "TableExists",
      "type": "error"
    },
    {
      "inputs": [
        {
          "internalType": "address",
          "name": "",
          "type": "address"
        }
      ],
      "name": "auditorId",
      "outputs": [
        {
          "internalType": "uint256",
          "name": "",
          "type": "uint256"
        }
      ],
      "stateMutability": "view",
      "type": "function"
    },
    {
      "inputs": [],
      "name": "createTable",
      "outputs": [],
      "stateMutability": "nonpayable",
      "type": "function"
    },
    {
      "inputs": [
        {
          "internalType": "string",
          "name": "filterName",
          "type": "string"
        },
        {
          "internalType": "uint8",
          "name": "comparison",
          "type": "uint8"
        },
        {
          "internalType": "uint256",
          "name": "value",
          "type": "uint256"
        }
      ],
      "name": "customQueryURL",
      "outputs": [
        {
          "internalType": "string",
          "name": "",
          "type": "string"
        }
      ],
      "stateMutability": "view",
      "type": "function"
    },
    {
      "inputs": [
        {
          "internalType": "string",
          "name": "name",
          "type": "string"
        },
        {
          "internalType": "string",
          "name": "bio",
          "type": "string"
        },
        {
          "internalType": "string",
          "name": "competencies",
          "type": "string"
        },
        {
          "internalType": "string",
          "name": "bugsFound",
          "type": "string"
        }
      ],
      "name": "insertIntoTable",
      "outputs": [],
      "stateMutability": "nonpayable",
      "type": "function"
    },
    {
      "inputs": [
        {
          "internalType": "address",
          "name": "",
          "type": "address"
        },
        {
          "internalType": "address",
          "name": "",
          "type": "address"
        },
        {
          "internalType": "uint256",
          "name": "",
          "type": "uint256"
        },
        {
          "internalType": "bytes",
          "name": "",
          "type": "bytes"
        }
      ],
      "name": "onERC721Received",
      "outputs": [
        {
          "internalType": "bytes4",
          "name": "",
          "type": "bytes4"
        }
      ],
      "stateMutability": "nonpayable",
      "type": "function"
    },
    {
      "inputs": [],
      "name": "owner",
      "outputs": [
        {
          "internalType": "address",
          "name": "",
          "type": "address"
        }
      ],
      "stateMutability": "view",
      "type": "function"
    },
    {
      "inputs": [],
      "name": "queryAllDataURL",
      "outputs": [
        {
          "internalType": "string",
          "name": "",
          "type": "string"
        }
      ],
      "stateMutability": "view",
      "type": "function"
    },
    {
      "inputs": [
        {
          "internalType": "address",
          "name": "auditorAddress",
          "type": "address"
        }
      ],
      "name": "queryByAddressURL",
      "outputs": [
        {
          "internalType": "string",
          "name": "",
          "type": "string"
        }
      ],
      "stateMutability": "view",
      "type": "function"
    },
    {
      "inputs": [
        {
          "internalType": "string",
          "name": "baseURI",
          "type": "string"
        }
      ],
      "name": "setBaseURI",
      "outputs": [],
      "stateMutability": "nonpayable",
      "type": "function"
    },
    {
      "inputs": [
        {
          "internalType": "string",
          "name": "_uriTemplate",
          "type": "string"
        }
      ],
      "name": "setURITemplate",
      "outputs": [],
      "stateMutability": "nonpayable",
      "type": "function"
    },
    {
      "inputs": [],
      "name": "tableId",
      "outputs": [
        {
          "internalType": "uint256",
          "name": "",
          "type": "uint256"
        }
      ],
      "stateMutability": "view",
      "type": "function"
    },
    {
      "inputs": [],
      "name": "uniqueId",
      "outputs": [
        {
          "internalType": "uint256",
          "name": "",
          "type": "uint256"
        }
      ],
      "stateMutability": "view",
      "type": "function"
    },
    {
      "inputs": [
        {
          "internalType": "string",
          "name": "bio",
          "type": "string"
        }
      ],
      "name": "updateBio",
      "outputs": [],
      "stateMutability": "nonpayable",
      "type": "function"
    },
    {
      "inputs": [
        {
          "internalType": "uint32",
          "name": "bugs",
          "type": "uint32"
        }
      ],
      "name": "updateBugsFound",
      "outputs": [],
      "stateMutability": "nonpayable",
      "type": "function"
    },
    {
      "inputs": [
        {
          "internalType": "string",
          "name": "competencies",
          "type": "string"
        }
      ],
      "name": "updateCompetencies",
      "outputs": [],
      "stateMutability": "nonpayable",
      "type": "function"
    }
  ],
  "bytecode": {
    "object": "0x6101006040526044608081815290620024ed60a039600590620000239082620000f3565b503480156200003157600080fd5b5046600055600380546001600160a01b03191633179055620001bf565b634e487b7160e01b600052604160045260246000fd5b600181811c908216806200007957607f821691505b6020821081036200009a57634e487b7160e01b600052602260045260246000fd5b50919050565b601f821115620000ee57600081815260208120601f850160051c81016020861015620000c95750805b601f850160051c820191505b81811015620000ea57828155600101620000d5565b5050505b505050565b81516001600160401b038111156200010f576200010f6200004e565b620001278162000120845462000064565b84620000a0565b602080601f8311600181146200015f5760008415620001465750858301515b600019600386901b1c1916600185901b178555620000ea565b600085815260208120601f198616915b8281101562000190578886015182559484019460019091019084016200016f565b5085821015620001af5787850151600019600388901b60f8161c191681555b5050505050600190811b01905550565b61231e80620001cf6000396000f3fe608060405234801561001057600080fd5b50600436106100f55760003560e01c80638da5cb5b11610097578063c2c1e2cb11610066578063c2c1e2cb14610254578063c8bd57341461025d578063dca585c014610270578063e228fcb51461029057600080fd5b80638da5cb5b146101ec5780639d0593db14610231578063ac9197a414610244578063b2a4c8971461024c57600080fd5b80635d66cdaa116100d35780635d66cdaa1461018f578063629c52a9146101a2578063652b1d7c146101b957806376487b38146101d957600080fd5b8063150b7a02146100fa5780632a5d2fae1461016757806355f804b31461017c575b600080fd5b61013161010836600461129a565b7f150b7a0200000000000000000000000000000000000000000000000000000000949350505050565b6040517fffffffff0000000000000000000000000000000000000000000000000000000090911681526020015b60405180910390f35b61017a61017536600461133d565b6102a3565b005b61017a61018a36600461133d565b6103f1565b61017a61019d366004611372565b610497565b6101ab60025481565b60405190815260200161015e565b6101cc6101c7366004611413565b610642565b60405161015e91906114e1565b61017a6101e736600461133d565b6107a0565b60035461020c9073ffffffffffffffffffffffffffffffffffffffff1681565b60405173ffffffffffffffffffffffffffffffffffffffff909116815260200161015e565b61017a61023f3660046114f4565b6107bb565b6101cc6107df565b61017a610856565b6101ab60015481565b6101cc61026b36600461151a565b610970565b6101ab61027e36600461151a565b60066020526000908152604090205481565b61017a61029e36600461133d565b610a78565b60006102ae82610aac565b6040516020016102be9190611551565b604080517fffffffffffffffffffffffffffffffffffffffffffffffffffffffffffffffe0818403018152918152336000908152600660205290812054919250906103119061030c90610ad5565b610aac565b6040516020016103219190611596565b604051602081830303815290604052905061033a610b93565b73ffffffffffffffffffffffffffffffffffffffff1663377af0da3060015461039c6040518060400160405280601881526020017f747275737462797465735f61756469746f72735f6c69737400000000000000008152506001548888610d66565b6040518463ffffffff1660e01b81526004016103ba939291906115db565b600060405180830381600087803b1580156103d457600080fd5b505af11580156103e8573d6000803e3d6000fd5b50505050505050565b60035473ffffffffffffffffffffffffffffffffffffffff16331461041557600080fd5b600561042182826116bb565b5061042a610b93565b73ffffffffffffffffffffffffffffffffffffffff166355f804b3826040518263ffffffff1660e01b815260040161046291906114e1565b600060405180830381600087803b15801561047c57600080fd5b505af1158015610490573d6000803e3d6000fd5b5050505050565b33600090815260066020526040902054156104de576040517f127546dd00000000000000000000000000000000000000000000000000000000815260040160405180910390fd5b600280549060006104ee83611804565b90915550506002543360009081526006602052604090205561050e610b93565b73ffffffffffffffffffffffffffffffffffffffff1663377af0da306001546105ec6040518060400160405280601881526020017f747275737462797465735f61756469746f72735f6c6973740000000000000000815250600154604051806060016040528060318152602001612169603191393360009081526006602052604090205461059b90610ad5565b896105a861030c33610de1565b6105b18f610aac565b6105ba8f610aac565b6105c38f610aac565b6040516020016105d89695949392919061183c565b604051602081830303815290604052610e0a565b6040518463ffffffff1660e01b815260040161060a939291906115db565b600060405180830381600087803b15801561062457600080fd5b505af1158015610638573d6000803e3d6000fd5b5050505050505050565b606060015460000361065357600080fd5b60608360ff16600003610696575060408051808201909152600381527f253343000000000000000000000000000000000000000000000000000000000060208201525b8360ff166001036106d7575060408051808201909152600381527f253344000000000000000000000000000000000000000000000000000000000060208201525b8360ff16600203610718575060408051808201909152600381527f253345000000000000000000000000000000000000000000000000000000000060208201525b60056040518060400160405280601881526020017f747275737462797465735f61756469746f72735f6c697374000000000000000081525061075b600054610ad5565b610766600154610ad5565b888561077189610ad5565b604051602001610787979695949392919061199d565b6040516020818303038152906040529150509392505050565b60006107ab82610aac565b6040516020016102be9190611ad2565b60006107cf61030c8363ffffffff16610ad5565b6040516020016102be9190611b17565b606060056040518060400160405280601881526020017f747275737462797465735f61756469746f72735f6c6973740000000000000000815250610824600054610ad5565b61082f600154610ad5565b6040516020016108429493929190611b4f565b604051602081830303815290604052905090565b60015415610890576040517f9ed2f11c00000000000000000000000000000000000000000000000000000000815260040160405180910390fd5b610898610b93565b73ffffffffffffffffffffffffffffffffffffffff1663a15ab08d3061090b6040518060a00160405280606c815260200161227d606c91396040518060400160405280601881526020017f747275737462797465735f61756469746f72735f6c6973740000000000000000815250610e49565b6040518363ffffffff1660e01b8152600401610928929190611c20565b6020604051808303816000875af1158015610947573d6000803e3d6000fd5b505050506040513d601f19601f8201168201806040525081019061096b9190611c4f565b600155565b6060600154600014806109a6575073ffffffffffffffffffffffffffffffffffffffff8216600090815260066020526040902054155b156109b057600080fd5b600060405180610120016040528060e3815260200161219a60e3913990506005816040518060400160405280601881526020017f747275737462797465735f61756469746f72735f6c6973740000000000000000815250610a12600054610ad5565b610a1d600154610ad5565b73ffffffffffffffffffffffffffffffffffffffff8816600090815260066020526040902054610a4c90610ad5565b604051602001610a6196959493929190611c68565b604051602081830303815290604052915050919050565b60035473ffffffffffffffffffffffffffffffffffffffff163314610a9c57600080fd5b6004610aa882826116bb565b5050565b606081604051602001610abf9190611d69565b6040516020818303038152906040529050919050565b60606000610ae283610e7f565b600101905060008167ffffffffffffffff811115610b0257610b026111d7565b6040519080825280601f01601f191660200182016040528015610b2c576020820181803683370190505b5090508181016020015b7fffffffffffffffffffffffffffffffffffffffffffffffffffffffffffffffff017f3031323334353637383961626364656600000000000000000000000000000000600a86061a8153600a8504945084610b3657509392505050565b600046600103610bb6575073012969f7e3439a9b04025b5a049eb9bad82a8c1290565b46600a03610bd7575073fad44bf5b843de943a09d4f3e84949a11d3aa3e690565b4661a4b103610bf95750739abd75e8640871a5a20d3b4ee6330a04c962affd90565b4661a4ba03610c1b5750731a22854c5b1642760a827f20137a67930ae108d290565b46608903610c3c5750735c4e6a9e5c1e1bf445a062006faf19ea6c49afea90565b4661013a03610c5e57507359ef8bf2d6c102b4c42aef9189e1a9f0abfd652d90565b4662aa36a703610c81575073c50c62498448acc8dbde43da77f8d5d2e2c7597d90565b466101a403610ca3575073c72e8a7be04f2469f8c2db3f1bdf69a7d516abba90565b4662066eed03610cc6575073033f69e8d119205089ab15d340f5b797732f646b90565b466201388103610ce95750734b48841d4b32c4650e4abc117a03fe8b51f38f6890565b46610c4503610d0b5750730b9737ab4b3e5303cb67db031b509697e31c02d390565b46617a6903610d2d575073e7f1725e7734ce288f8367e1bb143e90bb3f051290565b6040517f264e42cf0000000000000000000000000000000000000000000000000000000081524660048201526024015b60405180910390fd5b60606000610d748686610f61565b60408051602081019091526000815284519192509015610db15783604051602001610d9f9190611db3565b60405160208183030381529060405290505b818582604051602001610dc693929190611df8565b60405160208183030381529060405292505050949350505050565b6060610e0473ffffffffffffffffffffffffffffffffffffffff83166014610f88565b92915050565b60606000610e188686610f61565b9050808484604051602001610e2f93929190611e90565b604051602081830303815290604052915050949350505050565b606081610e5546610ad5565b84604051602001610e6893929190611f7a565b604051602081830303815290604052905092915050565b6000807a184f03e93ff9f4daa797ed6e38ed64bf6a1f0100000000000000008310610ec8577a184f03e93ff9f4daa797ed6e38ed64bf6a1f010000000000000000830492506040015b6d04ee2d6d415b85acef81000000008310610ef4576d04ee2d6d415b85acef8100000000830492506020015b662386f26fc100008310610f1257662386f26fc10000830492506010015b6305f5e1008310610f2a576305f5e100830492506008015b6127108310610f3e57612710830492506004015b60648310610f50576064830492506002015b600a8310610e045760010192915050565b606082610f6d46610ad5565b610f7684610ad5565b604051602001610e6893929190612064565b6060826000610f988460026120da565b610fa39060026120f1565b67ffffffffffffffff811115610fbb57610fbb6111d7565b6040519080825280601f01601f191660200182016040528015610fe5576020820181803683370190505b5090507f30000000000000000000000000000000000000000000000000000000000000008160008151811061101c5761101c612104565b60200101907effffffffffffffffffffffffffffffffffffffffffffffffffffffffffffff1916908160001a9053507f78000000000000000000000000000000000000000000000000000000000000008160018151811061107f5761107f612104565b60200101907effffffffffffffffffffffffffffffffffffffffffffffffffffffffffffff1916908160001a90535060006110bb8560026120da565b6110c69060016120f1565b90505b6001811115611163577f303132333435363738396162636465660000000000000000000000000000000083600f166010811061110757611107612104565b1a60f81b82828151811061111d5761111d612104565b60200101907effffffffffffffffffffffffffffffffffffffffffffffffffffffffffffff1916908160001a90535060049290921c9161115c81612133565b90506110c9565b5081156111a6576040517fe22e27eb0000000000000000000000000000000000000000000000000000000081526004810186905260248101859052604401610d5d565b949350505050565b803573ffffffffffffffffffffffffffffffffffffffff811681146111d257600080fd5b919050565b7f4e487b7100000000000000000000000000000000000000000000000000000000600052604160045260246000fd5b600067ffffffffffffffff80841115611221576112216111d7565b604051601f85017fffffffffffffffffffffffffffffffffffffffffffffffffffffffffffffffe0908116603f01168101908282118183101715611267576112676111d7565b8160405280935085815286868601111561128057600080fd5b858560208301376000602087830101525050509392505050565b600080600080608085870312156112b057600080fd5b6112b9856111ae565b93506112c7602086016111ae565b925060408501359150606085013567ffffffffffffffff8111156112ea57600080fd5b8501601f810187136112fb57600080fd5b61130a87823560208401611206565b91505092959194509250565b600082601f83011261132757600080fd5b61133683833560208501611206565b9392505050565b60006020828403121561134f57600080fd5b813567ffffffffffffffff81111561136657600080fd5b6111a684828501611316565b6000806000806080858703121561138857600080fd5b843567ffffffffffffffff808211156113a057600080fd5b6113ac88838901611316565b955060208701359150808211156113c257600080fd5b6113ce88838901611316565b945060408701359150808211156113e457600080fd5b6113f088838901611316565b9350606087013591508082111561140657600080fd5b5061130a87828801611316565b60008060006060848603121561142857600080fd5b833567ffffffffffffffff81111561143f57600080fd5b61144b86828701611316565b935050602084013560ff8116811461146257600080fd5b929592945050506040919091013590565b60005b8381101561148e578181015183820152602001611476565b50506000910152565b600081518084526114af816020860160208601611473565b601f017fffffffffffffffffffffffffffffffffffffffffffffffffffffffffffffffe0169290920160200192915050565b6020815260006113366020830184611497565b60006020828403121561150657600080fd5b813563ffffffff8116811461133657600080fd5b60006020828403121561152c57600080fd5b611336826111ae565b60008151611547818560208601611473565b9290920192915050565b7f636f6d706574656e636965733d0000000000000000000000000000000000000081526000825161158981600d850160208701611473565b91909101600d0192915050565b7f61756469746f7249643d000000000000000000000000000000000000000000008152600082516115ce81600a850160208701611473565b91909101600a0192915050565b73ffffffffffffffffffffffffffffffffffffffff841681528260208201526060604082015260006116106060830184611497565b95945050505050565b600181811c9082168061162d57607f821691505b602082108103611666577f4e487b7100000000000000000000000000000000000000000000000000000000600052602260045260246000fd5b50919050565b601f8211156116b657600081815260208120601f850160051c810160208610156116935750805b601f850160051c820191505b818110156116b25782815560010161169f565b5050505b505050565b815167ffffffffffffffff8111156116d5576116d56111d7565b6116e9816116e38454611619565b8461166c565b602080601f83116001811461173c57600084156117065750858301515b7fffffffffffffffffffffffffffffffffffffffffffffffffffffffffffffffff600386901b1c1916600185901b1785556116b2565b6000858152602081207fffffffffffffffffffffffffffffffffffffffffffffffffffffffffffffffe08616915b828110156117895788860151825594840194600190910190840161176a565b50858210156117c557878501517fffffffffffffffffffffffffffffffffffffffffffffffffffffffffffffffff600388901b60f8161c191681555b5050505050600190811b01905550565b7f4e487b7100000000000000000000000000000000000000000000000000000000600052601160045260246000fd5b60007fffffffffffffffffffffffffffffffffffffffffffffffffffffffffffffffff8203611835576118356117d5565b5060010190565b60008751602061184f8285838d01611473565b81840191507f2c00000000000000000000000000000000000000000000000000000000000000808352895161188a8160018601858e01611473565b6001930192830181905288516118a68160028601858d01611473565b6002930192830181905287516118c28160038601858c01611473565b6003930192830181905286516118de8160048601858b01611473565b600493019283015284516118f88160058501848901611473565b919091016005019998505050505050505050565b6000815461191981611619565b60018281168015611931576001811461196457611993565b7fffffffffffffffffffffffffffffffffffffffffffffffffffffffffffffff0084168752821515830287019450611993565b8560005260208060002060005b8581101561198a5781548a820152908401908201611971565b50505082870194505b5050505092915050565b60006119a9828a61190c565b7f66616c736500000000000000000000000000000000000000000000000000000081527f2673746174656d656e743d53454c4543542532302a25323046524f4d2532300060058201528851611a05816024840160208d01611473565b8082019150507f5f000000000000000000000000000000000000000000000000000000000000008060248301528851611a45816025850160208d01611473565b60259201918201528651611a60816026840160208b01611473565b7f2b57484552452b00000000000000000000000000000000000000000000000000602692909101918201528551611a9e81602d840160208a01611473565b8551910190611ab481602d840160208901611473565b611ac3602d8284010186611535565b9b9a5050505050505050505050565b7f62696f3d00000000000000000000000000000000000000000000000000000000815260008251611b0a816004850160208701611473565b9190910160040192915050565b7f62756773466f756e643d000000000000000000000000000000000000000000008152600082516115ce81600a850160208701611473565b6000611b5b828761190c565b7f66616c736500000000000000000000000000000000000000000000000000000081527f2673746174656d656e743d53454c4543542532302a25323046524f4d2532300060058201528551611bb7816024840160208a01611473565b8082019150507f5f000000000000000000000000000000000000000000000000000000000000008060248301528551611bf7816025850160208a01611473565b60259201918201528351611c12816026840160208801611473565b016026019695505050505050565b73ffffffffffffffffffffffffffffffffffffffff831681526040602082015260006111a66040830184611497565b600060208284031215611c6157600080fd5b5051919050565b6000611c74828961190c565b7f747275650000000000000000000000000000000000000000000000000000000081528751611caa816004840160208c01611473565b8751910190611cc0816004840160208b01611473565b8082019150507f5f000000000000000000000000000000000000000000000000000000000000008060048301528651611d00816005850160208b01611473565b60059201918201528451611d1b816006840160208901611473565b7f2b57484552452b61756469746f72496425334400000000000000000000000000600692909101918201528351611d59816019840160208801611473565b0160190198975050505050505050565b60007f27000000000000000000000000000000000000000000000000000000000000008083528351611da2816001860160208801611473565b600193019283015250600201919050565b7f2057484552452000000000000000000000000000000000000000000000000000815260008251611deb816007850160208701611473565b9190910160070192915050565b7f5550444154452000000000000000000000000000000000000000000000000000815260008451611e30816007850160208901611473565b7f20534554200000000000000000000000000000000000000000000000000000006007918401918201528451611e6d81600c840160208901611473565b8451910190611e8381600c840160208801611473565b01600c0195945050505050565b7f494e5345525420494e544f200000000000000000000000000000000000000000815260008451611ec881600c850160208901611473565b7f2800000000000000000000000000000000000000000000000000000000000000600c918401918201528451611f0581600d840160208901611473565b7f2956414c55455328000000000000000000000000000000000000000000000000600d92909101918201528351611f43816015840160208801611473565b7f29000000000000000000000000000000000000000000000000000000000000006015929091019182015260160195945050505050565b7f435245415445205441424c452000000000000000000000000000000000000000815260008451611fb281600d850160208901611473565b7f5f00000000000000000000000000000000000000000000000000000000000000600d918401918201528451611fef81600e840160208901611473565b7f2800000000000000000000000000000000000000000000000000000000000000600e9290910191820152835161202d81600f840160208801611473565b7f2900000000000000000000000000000000000000000000000000000000000000600f929091019182015260100195945050505050565b60008451612076818460208901611473565b80830190507f5f0000000000000000000000000000000000000000000000000000000000000080825285516120b2816001850160208a01611473565b600192019182015283516120cd816002840160208801611473565b0160020195945050505050565b8082028115828204841417610e0457610e046117d5565b80820180821115610e0457610e046117d5565b7f4e487b7100000000000000000000000000000000000000000000000000000000600052603260045260246000fd5b600081612142576121426117d5565b507fffffffffffffffffffffffffffffffffffffffffffffffffffffffffffffffff019056fe61756469746f7249642c62756773466f756e642c616464726573732c6e616d652c62696f2c636f6d706574656e636965732673746174656d656e743d53454c4543542b6a736f6e5f6f626a65637425323825323769642532372532432b69642532432b25323761756469746f7249642532372532432b61756469746f7249642532432b253237616464726573732532372532432b616464726573732532432b2532376e616d652532372532432b6e616d652532432b25323762696f2532372532432b62696f2532432b253237636f6d706574656e636965732532372532432b636f6d706574656e636965732532432b25323762756773466f756e642532372532432b62756773466f756e642532392b46524f4d2b696420696e7465676572207072696d617279206b65792c61756469746f72496420696e74656765722c62756773466f756e6420696e74656765722c6164647265737320746578742c6e616d6520746578742c62696f20746578742c636f6d706574656e636965732074657874a26469706673582212201bd11b1fe43be15850d3427af75e91f0039208d3cf72694e3e5eb6278e3c258764736f6c6343000813003368747470733a2f2f746573746e6574732e7461626c656c616e642e6e6574776f726b2f6170692f76312f71756572793f756e777261703d7472756526657874726163743d",
    "linkReferences": {}
  },
  "methodIdentifiers": {
    "auditorId(address)": "dca585c0",
    "createTable()": "b2a4c897",
    "customQueryURL(string,uint8,uint256)": "652b1d7c",
    "insertIntoTable(string,string,string,string)": "5d66cdaa",
    "onERC721Received(address,address,uint256,bytes)": "150b7a02",
    "owner()": "8da5cb5b",
    "queryAllDataURL()": "ac9197a4",
    "queryByAddressURL(address)": "c8bd5734",
    "setBaseURI(string)": "55f804b3",
    "setURITemplate(string)": "e228fcb5",
    "tableId()": "c2c1e2cb",
    "uniqueId()": "629c52a9",
    "updateBio(string)": "76487b38",
    "updateBugsFound(uint32)": "9d0593db",
    "updateCompetencies(string)": "2a5d2fae"
  },
  "id": 41
}