{
  "abi": [
    {
      "inputs": [],
      "stateMutability": "nonpayable",
      "type": "constructor"
    },
    {
      "inputs": [
        {
          "internalType": "uint256",
          "name": "chainid",
          "type": "uint256"
        }
      ],
      "name": "ChainNotSupported",
      "type": "error"
    },
    {
      "inputs": [
        {
          "internalType": "uint256",
          "name": "value",
          "type": "uint256"
        },
        {
          "internalType": "uint256",
          "name": "length",
          "type": "uint256"
        }
      ],
      "name": "StringsInsufficientHexLength",
      "type": "error"
    },
    {
      "inputs": [],
      "name": "createTable",
      "outputs": [],
      "stateMutability": "nonpayable",
      "type": "function"
    },
    {
      "inputs": [
        {
          "internalType": "address",
          "name": "sender",
          "type": "address"
        }
      ],
      "name": "getPolicy",
      "outputs": [
        {
          "components": [
            {
              "internalType": "bool",
              "name": "allowInsert",
              "type": "bool"
            },
            {
              "internalType": "bool",
              "name": "allowUpdate",
              "type": "bool"
            },
            {
              "internalType": "bool",
              "name": "allowDelete",
              "type": "bool"
            },
            {
              "internalType": "string",
              "name": "whereClause",
              "type": "string"
            },
            {
              "internalType": "string",
              "name": "withCheck",
              "type": "string"
            },
            {
              "internalType": "string[]",
              "name": "updatableColumns",
              "type": "string[]"
            }
          ],
          "internalType": "struct ITablelandController.Policy",
          "name": "",
          "type": "tuple"
        }
      ],
      "stateMutability": "payable",
      "type": "function"
    },
    {
      "inputs": [
        {
          "internalType": "string",
          "name": "val",
          "type": "string"
        }
      ],
      "name": "insertIntoTable",
      "outputs": [],
      "stateMutability": "nonpayable",
      "type": "function"
    },
    {
      "inputs": [
        {
          "internalType": "address",
          "name": "",
          "type": "address"
        },
        {
          "internalType": "address",
          "name": "",
          "type": "address"
        },
        {
          "internalType": "uint256",
          "name": "",
          "type": "uint256"
        },
        {
          "internalType": "bytes",
          "name": "",
          "type": "bytes"
        }
      ],
      "name": "onERC721Received",
      "outputs": [
        {
          "internalType": "bytes4",
          "name": "",
          "type": "bytes4"
        }
      ],
      "stateMutability": "nonpayable",
      "type": "function"
    },
    {
      "inputs": [],
      "name": "owner",
      "outputs": [
        {
          "internalType": "address",
          "name": "",
          "type": "address"
        }
      ],
      "stateMutability": "view",
      "type": "function"
    },
    {
      "inputs": [],
      "name": "tableId",
      "outputs": [
        {
          "internalType": "uint256",
          "name": "",
          "type": "uint256"
        }
      ],
      "stateMutability": "view",
      "type": "function"
    },
    {
      "inputs": [
        {
          "internalType": "address",
          "name": "controller",
          "type": "address"
        }
      ],
      "name": "updateController",
      "outputs": [],
      "stateMutability": "nonpayable",
      "type": "function"
    },
    {
      "inputs": [
        {
          "internalType": "string",
          "name": "val",
          "type": "string"
        }
      ],
      "name": "updateTable",
      "outputs": [],
      "stateMutability": "nonpayable",
      "type": "function"
    }
  ],
  "bytecode": {
    "object": "0x608060405234801561001057600080fd5b50600180546001600160a01b03191633179055611a0e806100326000396000f3fe60806040526004361061007b5760003560e01c806366d49ff11161004e57806366d49ff11461015c5780638da5cb5b1461017c578063b2a4c897146101ce578063c2c1e2cb146101e357600080fd5b806306cb5b6614610080578063150b7a02146100a2578063252e4bc61461011c5780633791dc6a1461013c575b600080fd5b34801561008c57600080fd5b506100a061009b3660046110bd565b610207565b005b3480156100ae57600080fd5b506100e66100bd3660046111a4565b7f150b7a0200000000000000000000000000000000000000000000000000000000949350505050565b6040517fffffffff0000000000000000000000000000000000000000000000000000000090911681526020015b60405180910390f35b34801561012857600080fd5b506100a0610137366004611224565b610374565b61014f61014a3660046110bd565b610493565b60405161011391906112db565b34801561016857600080fd5b506100a0610177366004611224565b6106a6565b34801561018857600080fd5b506001546101a99073ffffffffffffffffffffffffffffffffffffffff1681565b60405173ffffffffffffffffffffffffffffffffffffffff9091168152602001610113565b3480156101da57600080fd5b506100a06107cc565b3480156101ef57600080fd5b506101f960005481565b604051908152602001610113565b60015473ffffffffffffffffffffffffffffffffffffffff16331461022b57600080fd5b60006102356108ac565b73ffffffffffffffffffffffffffffffffffffffff166358edaa9c6000546040518263ffffffff1660e01b815260040161027191815260200190565b6020604051808303816000875af1158015610290573d6000803e3d6000fd5b505050506040513d601f19601f820116820180604052508101906102b491906113bb565b905073ffffffffffffffffffffffffffffffffffffffff81163014610370576102db6108ac565b6000546040517f8bb0ab97000000000000000000000000000000000000000000000000000000008152306004820152602481019190915273ffffffffffffffffffffffffffffffffffffffff84811660448301529190911690638bb0ab9790606401600060405180830381600087803b15801561035757600080fd5b505af115801561036b573d6000803e3d6000fd5b505050505b5050565b600061037f82610a7f565b60405160200161038f91906113d8565b604051602081830303815290604052905060006103b36103ae33610aa8565b610a7f565b6040516020016103c3919061141d565b60405160208183030381529060405290506103dc6108ac565b73ffffffffffffffffffffffffffffffffffffffff1663377af0da3060005461043e6040518060400160405280601381526020017f6d795f717569636b73746172745f7461626c65000000000000000000000000008152506000548888610ad1565b6040518463ffffffff1660e01b815260040161045c93929190611462565b600060405180830381600087803b15801561047657600080fd5b505af115801561048a573d6000803e3d6000fd5b50505050505050565b6040805160c0810182526000808252602082018190529181019190915260608082018190526080820181905260a082015260015473ffffffffffffffffffffffffffffffffffffffff9081169083160361055e576040805160c081018252600180825260208083018290528284019190915282518082018452600080825260608401919091528351808301855281815260808401528351818152918201909352909160a083019190610555565b60608152602001906001900390816105405790505b50905292915050565b604080516001808252818301909252600091816020015b60608152602001906001900390816105755790505090506105986103ae84610aa8565b6040516020016105a8919061141d565b604051602081830303815290604052816000815181106105ca576105ca6114a0565b6020908102919091010152604080516001808252818301909252600091816020015b60608152602001906001900390816105ec5790505090506040518060400160405280600381526020017f76616c00000000000000000000000000000000000000000000000000000000008152508160008151811061064c5761064c6114a0565b60200260200101819052506040518060c0016040528060011515815260200160011515815260200160001515815260200161068684610b4c565b815260408051602081810183526000825283015201919091529392505050565b6106ae6108ac565b73ffffffffffffffffffffffffffffffffffffffff1663377af0da306000546107796040518060400160405280601381526020017f6d795f717569636b73746172745f7461626c65000000000000000000000000008152506000546040518060400160405280600b81526020017f616464726573732c76616c00000000000000000000000000000000000000000081525061074b6103ae33610aa8565b6107548a610a7f565b6040516020016107659291906114cf565b604051602081830303815290604052610c36565b6040518463ffffffff1660e01b815260040161079793929190611462565b600060405180830381600087803b1580156107b157600080fd5b505af11580156107c5573d6000803e3d6000fd5b5050505050565b6107d46108ac565b73ffffffffffffffffffffffffffffffffffffffff1663a15ab08d306108476040518060600160405280602c81526020016119d6602c91396040518060400160405280601381526020017f6d795f717569636b73746172745f7461626c6500000000000000000000000000815250610c75565b6040518363ffffffff1660e01b8152600401610864929190611527565b6020604051808303816000875af1158015610883573d6000803e3d6000fd5b505050506040513d601f19601f820116820180604052508101906108a79190611556565b600055565b6000466001036108cf575073012969f7e3439a9b04025b5a049eb9bad82a8c1290565b46600a036108f0575073fad44bf5b843de943a09d4f3e84949a11d3aa3e690565b4661a4b1036109125750739abd75e8640871a5a20d3b4ee6330a04c962affd90565b4661a4ba036109345750731a22854c5b1642760a827f20137a67930ae108d290565b466089036109555750735c4e6a9e5c1e1bf445a062006faf19ea6c49afea90565b4661013a0361097757507359ef8bf2d6c102b4c42aef9189e1a9f0abfd652d90565b4662aa36a70361099a575073c50c62498448acc8dbde43da77f8d5d2e2c7597d90565b466101a4036109bc575073c72e8a7be04f2469f8c2db3f1bdf69a7d516abba90565b4662066eed036109df575073033f69e8d119205089ab15d340f5b797732f646b90565b466201388103610a025750734b48841d4b32c4650e4abc117a03fe8b51f38f6890565b46610c4503610a245750730b9737ab4b3e5303cb67db031b509697e31c02d390565b46617a6903610a46575073e7f1725e7734ce288f8367e1bb143e90bb3f051290565b6040517f264e42cf0000000000000000000000000000000000000000000000000000000081524660048201526024015b60405180910390fd5b606081604051602001610a92919061156f565b6040516020818303038152906040529050919050565b6060610acb73ffffffffffffffffffffffffffffffffffffffff83166014610cab565b92915050565b60606000610adf8686610ed1565b60408051602081019091526000815284519192509015610b1c5783604051602001610b0a91906115b9565b60405160208183030381529060405290505b818582604051602001610b31939291906115fe565b60405160208183030381529060405292505050949350505050565b60608060005b8351811015610c2f57838181518110610b6d57610b6d6114a0565b60200260200101515160000315610c1d57815115610bdf57816040518060400160405280600581526020017f20616e6420000000000000000000000000000000000000000000000000000000815250604051602001610bcd929190611696565b60405160208183030381529060405291505b81848281518110610bf257610bf26114a0565b6020026020010151604051602001610c0b929190611696565b60405160208183030381529060405291505b80610c27816116f4565b915050610b52565b5092915050565b60606000610c448686610ed1565b9050808484604051602001610c5b9392919061172c565b604051602081830303815290604052915050949350505050565b606081610c8146610ef8565b84604051602001610c9493929190611816565b604051602081830303815290604052905092915050565b6060826000610cbb846002611900565b610cc6906002611917565b67ffffffffffffffff811115610cde57610cde6110e1565b6040519080825280601f01601f191660200182016040528015610d08576020820181803683370190505b5090507f300000000000000000000000000000000000000000000000000000000000000081600081518110610d3f57610d3f6114a0565b60200101907effffffffffffffffffffffffffffffffffffffffffffffffffffffffffffff1916908160001a9053507f780000000000000000000000000000000000000000000000000000000000000081600181518110610da257610da26114a0565b60200101907effffffffffffffffffffffffffffffffffffffffffffffffffffffffffffff1916908160001a9053506000610dde856002611900565b610de9906001611917565b90505b6001811115610e86577f303132333435363738396162636465660000000000000000000000000000000083600f1660108110610e2a57610e2a6114a0565b1a60f81b828281518110610e4057610e406114a0565b60200101907effffffffffffffffffffffffffffffffffffffffffffffffffffffffffffff1916908160001a90535060049290921c91610e7f8161192a565b9050610dec565b508115610ec9576040517fe22e27eb0000000000000000000000000000000000000000000000000000000081526004810186905260248101859052604401610a76565b949350505050565b606082610edd46610ef8565b610ee684610ef8565b604051602001610c949392919061195f565b60606000610f0583610fb6565b600101905060008167ffffffffffffffff811115610f2557610f256110e1565b6040519080825280601f01601f191660200182016040528015610f4f576020820181803683370190505b5090508181016020015b7fffffffffffffffffffffffffffffffffffffffffffffffffffffffffffffffff017f3031323334353637383961626364656600000000000000000000000000000000600a86061a8153600a8504945084610f5957509392505050565b6000807a184f03e93ff9f4daa797ed6e38ed64bf6a1f0100000000000000008310610fff577a184f03e93ff9f4daa797ed6e38ed64bf6a1f010000000000000000830492506040015b6d04ee2d6d415b85acef8100000000831061102b576d04ee2d6d415b85acef8100000000830492506020015b662386f26fc10000831061104957662386f26fc10000830492506010015b6305f5e1008310611061576305f5e100830492506008015b612710831061107557612710830492506004015b60648310611087576064830492506002015b600a8310610acb5760010192915050565b73ffffffffffffffffffffffffffffffffffffffff811681146110ba57600080fd5b50565b6000602082840312156110cf57600080fd5b81356110da81611098565b9392505050565b7f4e487b7100000000000000000000000000000000000000000000000000000000600052604160045260246000fd5b600067ffffffffffffffff8084111561112b5761112b6110e1565b604051601f85017fffffffffffffffffffffffffffffffffffffffffffffffffffffffffffffffe0908116603f01168101908282118183101715611171576111716110e1565b8160405280935085815286868601111561118a57600080fd5b858560208301376000602087830101525050509392505050565b600080600080608085870312156111ba57600080fd5b84356111c581611098565b935060208501356111d581611098565b925060408501359150606085013567ffffffffffffffff8111156111f857600080fd5b8501601f8101871361120957600080fd5b61121887823560208401611110565b91505092959194509250565b60006020828403121561123657600080fd5b813567ffffffffffffffff81111561124d57600080fd5b8201601f8101841361125e57600080fd5b610ec984823560208401611110565b60005b83811015611288578181015183820152602001611270565b50506000910152565b600081518084526112a981602086016020860161126d565b601f017fffffffffffffffffffffffffffffffffffffffffffffffffffffffffffffffe0169290920160200192915050565b6000602080835283511515818401528084015115156040840152604084015115156060840152606084015160c0608085015261131a60e0850182611291565b905060808501517fffffffffffffffffffffffffffffffffffffffffffffffffffffffffffffffe0808684030160a08701526113568383611291565b60a0880151878203830160c089015280518083529194508501925084840190600581901b8501860160005b828110156113ad578487830301845261139b828751611291565b95880195938801939150600101611381565b509998505050505050505050565b6000602082840312156113cd57600080fd5b81516110da81611098565b7f76616c3d0000000000000000000000000000000000000000000000000000000081526000825161141081600485016020870161126d565b9190910160040192915050565b7f616464726573733d00000000000000000000000000000000000000000000000081526000825161145581600885016020870161126d565b9190910160080192915050565b73ffffffffffffffffffffffffffffffffffffffff841681528260208201526060604082015260006114976060830184611291565b95945050505050565b7f4e487b7100000000000000000000000000000000000000000000000000000000600052603260045260246000fd5b600083516114e181846020880161126d565b7f2c00000000000000000000000000000000000000000000000000000000000000908301908152835161151b81600184016020880161126d565b01600101949350505050565b73ffffffffffffffffffffffffffffffffffffffff83168152604060208201526000610ec96040830184611291565b60006020828403121561156857600080fd5b5051919050565b60007f270000000000000000000000000000000000000000000000000000000000000080835283516115a881600186016020880161126d565b600193019283015250600201919050565b7f20574845524520000000000000000000000000000000000000000000000000008152600082516115f181600785016020870161126d565b9190910160070192915050565b7f555044415445200000000000000000000000000000000000000000000000000081526000845161163681600785016020890161126d565b7f2053455420000000000000000000000000000000000000000000000000000000600791840191820152845161167381600c84016020890161126d565b845191019061168981600c84016020880161126d565b01600c0195945050505050565b600083516116a881846020880161126d565b8351908301906116bc81836020880161126d565b01949350505050565b7f4e487b7100000000000000000000000000000000000000000000000000000000600052601160045260246000fd5b60007fffffffffffffffffffffffffffffffffffffffffffffffffffffffffffffffff8203611725576117256116c5565b5060010190565b7f494e5345525420494e544f20000000000000000000000000000000000000000081526000845161176481600c85016020890161126d565b7f2800000000000000000000000000000000000000000000000000000000000000600c9184019182015284516117a181600d84016020890161126d565b7f2956414c55455328000000000000000000000000000000000000000000000000600d929091019182015283516117df81601584016020880161126d565b7f29000000000000000000000000000000000000000000000000000000000000006015929091019182015260160195945050505050565b7f435245415445205441424c45200000000000000000000000000000000000000081526000845161184e81600d85016020890161126d565b7f5f00000000000000000000000000000000000000000000000000000000000000600d91840191820152845161188b81600e84016020890161126d565b7f2800000000000000000000000000000000000000000000000000000000000000600e929091019182015283516118c981600f84016020880161126d565b7f2900000000000000000000000000000000000000000000000000000000000000600f929091019182015260100195945050505050565b8082028115828204841417610acb57610acb6116c5565b80820180821115610acb57610acb6116c5565b600081611939576119396116c5565b507fffffffffffffffffffffffffffffffffffffffffffffffffffffffffffffffff0190565b6000845161197181846020890161126d565b80830190507f5f0000000000000000000000000000000000000000000000000000000000000080825285516119ad816001850160208a0161126d565b600192019182015283516119c881600284016020880161126d565b016002019594505050505056fe696420696e7465676572207072696d617279206b65792c6164647265737320746578742c76616c2074657874a164736f6c6343000815000a",
    "linkReferences": {}
  },
  "methodIdentifiers": {
    "createTable()": "b2a4c897",
    "getPolicy(address)": "3791dc6a",
    "insertIntoTable(string)": "66d49ff1",
    "onERC721Received(address,address,uint256,bytes)": "150b7a02",
    "owner()": "8da5cb5b",
    "tableId()": "c2c1e2cb",
    "updateController(address)": "06cb5b66",
    "updateTable(string)": "252e4bc6"
  },
  "id": 34
}